:100000005815002035020000470200004902000098
:100010004B0200004D0200004F02000000000000F3
:10002000000000000000000000000000510200007D
:1000300053020000000000005502000057020000BB
:10004000652200005B0200005D0200005F0200000C
:100050006102000063020000650200006702000008
:10006000690200006B0200006D0200006F020000D8
:1000700071020000730200007502000077020000A8
:10008000790200007B0200007D0200007F02000078
:100090008102000083020000850200008702000048
:1000A000890200008B0200008D0200008F02000018
:1000B00091020000930200009502000097020000E8
:1000C000990200009B0200009D0200009F020000B8
:0800D000A1020000A3020000E0
:1000D8003649072291438D46354936480A1A06D0D3
:1000E8000722914381F30988022282F31488324857
:1000F8003249334A00F046F832483349334A00F06F
:1001080041F833483349344A00F03CF8334834491D
:10011800344A00F037F834483449354A00F032F8A8
:1001280034483549354A00F02DF835483549364ABE
:1001380000F028F835483649002200F02EF83548F6
:100148003549002200F029F834483549091A0829A8
:1001580003DB002202600430016021482149884203
:1001680000F007800268043003B4904703BCFFF72F
:10017800F6BF00208646EC4600200021294A904719
:10018800FFF7FEBF884207D0521A05D00378013026
:100198000B700131013AF9D17047884203D00270DF
:1001A8000130FFF7FABF70471F4870475815002005
:1001B8005815002058150020AC4600003C030020CC
:1001C80044030020B4020000B4020000B84200005A
:1001D80070440000000100203C030020B8420000E9
:1001E800B8420000B8420000B8420000B84200001F
:1001F800B8420000B8420000B84200007044000055
:10020800B44600005C1500205C1500204403002063
:10021800D8040020581500205C150020D8040020C0
:1002280058050020F5180000FFFFFFFFDFF86CD02D
:100238001B4880471B481C490160FFF749BFFEE780
:10024800FEE7FEE7FEE7FEE7FEE7FEE7FEE7FEE77E
:10025800FEE7FEE7FEE7FEE7FEE7FEE7FEE7FEE76E
:10026800FEE7FEE7FEE7FEE7FEE7FEE7FEE7FEE75E
:10027800FEE7FEE7FEE7FEE7FEE7FEE7FEE7FEE74E
:10028800FEE7FEE7FEE7FEE7FEE7FEE7FEE7FEE73E
:10029800FEE7FEE7FEE7FEE7FEE7FEE70080002058
:0C02A8001D1E000008ED00E0000000003A
:1002B4002DE9F041A8B006460D461446984611A80B
:1002C40001F0BEF974B140273F2C10D9284601A98A
:1002D4003A46B04711A801A93A4601F0CBF9403596
:1002E400403CF1D1404611A901F00CFA09E028463E
:1002F40001A92246B04711A801A9224601F0BAF982
:10030400F0E728B0BDE8F08110B402780B789A4287
:100314000AD1012310F8014F11F8012F944205D19D
:100324000133142BF6D103E0002002E0002000E0AA
:1003340001205DF8044B704708B5084B08221A6188
:1003440004221A614FF48052C3F8A0204FF4806253
:10035400C3F8A0200A2001F0A7FC08BD00600040FB
:10036400034B04221A614FF48062C3F8A020704743
:100374000060004070B4014608220020114B4FF485
:1003840080544FF48066C3F8A44011F0800F14BF6A
:10039400C3F8A060C3F8A4604900C9B2C3F8A04080
:1003A4004000C0B2D3F8AC50C5F3C0252843013A8D
:1003B400E9D1054A1378591C1170044AD05470BC11
:1003C400704700BF00600040440400204403002044
:1003D400F8B517461E4604220C4B5A610D4639B136
:1003E4000446054414F8010BFFF7C4FFAC42F9D1ED
:1003F4004EB13C463E4400252846FFF7BBFF04F8B7
:10040400010BB442F8D1FFF7ABFFF8BD0060004028
:1004140010B50422054B5A61FFF7ACFF0020FFF72B
:10042400A9FF0446FFF79CFF204610BD0060004072
:1004340000B583B0AB238DF8043000238DF805306C
:100444008DF806308DF8073001A804210DF1030260
:100454000123FFF7BDFF1E2001F016FC03B05DF879
:1004640004FB00BF10B582B00022184B1A70184963
:100474004B1EFF3103F8012F8B42FBD1FFF75CFFCA
:10048400FFF7D6FF90238DF8043000238DF8053054
:100494008DF806308DF8073001A804216A4602233E
:1004A400FFF796FF9DF801409DF80030EF2B04D034
:1004B40008488F21084A01F06FFA142C04D005482B
:1004C4009221054A01F068FA02B010BD44040020EC
:1004D40044030020B8420000A843000010B50524DE
:1004E4002046FFF795FF10F0010FF9D110BD00BFB2
:1004F40070B582B004460E461546FFF7EFFF0B2396
:100504008DF80030230C8DF80130230A8DF8023069
:100514008DF8034000238DF80430684605213246E7
:100524002B46FFF755FF02B070BD00BF2DE9F00F59
:1005340092B00D90026840680D9B9C68DE680B6861
:100544004FEA336B0BF0FF1B4FEA332303F0FF2317
:100554004BEA030301930D9F3D691D44EC4B1D447D
:1005640005EBF26586EA0407074077403D444FEA0D
:10057400B0004F684FEA376B0BF0FF1B4FEA372789
:1005840007F0FF274BEA07070297BA46B2449A449A
:1005940080EA040717406740BA440AEBF56A4FEA59
:1005A400B2028E684FEA366808F0FF184FEA362622
:1005B40006F0FF2648EA060804EB080C9C4482EA8D
:1005C40000062E404640B4440CEBFA6C4FEAB50BDF
:1005D400CC684FEA346505F0FF154FEA342909F079
:1005E400FF2945EA090909EB030738448BEA0204A9
:1005F40004EA0A045440071907EBFC674FEABA0AF5
:1006040008694FEA306404F0FF144FEA302606F01C
:10061400FF2626430E961E4432448AEA0B0000EA63
:100624000C0080EA0B00161806EBF7664FEABC0CC8
:100634004A694FEA326000F0FF104FEA322505F0B4
:10064400FF2505430F951D44AB448CEA0A023A404A
:1006540082EA0A020BEB020505EBF6654FEAB707DF
:100664008A694FEA326000F0FF104FEA322404F046
:10067400FF24044310941C44A24487EA0C02324031
:1006840082EA0C020AEB020404EBF5644FEAB606B4
:10069400CA694FEA326A0AF0FF1A4FEA322000F0C0
:1006A400FF204AEA000011901844844486EA0702B5
:1006B4002A407A400CEB020000EBF4604FEAB505E7
:1006C4000A6A4FEA326C0CF0FF1C4FEA322202F045
:1006D400FF224CEA020208921A44174485EA060CE7
:1006E4000CEA040C8CEA060C07EB0C0202EBF06239
:1006F4004FEAB4044F6A4FEA376C0CF0FF1C4FEA20
:10070400372B0BF0FF2B4CEA0B0BCDF824B05F46D4
:100714001F443E4484EA050707406F403E4406EB0D
:10072400F2664FEAB0008F6A4FEA376C0CF0FF1C98
:100734004FEA372B0BF0FF2B4CEA0B0BCDF828B00C
:100744005F461F443D4480EA0407174067403D4428
:1007540005EBF6654FEAB202CF6A4FEA376C0CF04C
:10076400FF1C4FEA372B0BF0FF2B4CEA0B0BCDF899
:100774002CB05F461F443C4482EA000737404740A0
:100784003C4404EBF5644FEAB6060F6B4FEA376C52
:100794000CF0FF1C4FEA372B0BF0FF2B4CEA0B0B32
:1007A400CDF830B05F461F44384486EA02072F4034
:1007B4005740384400EBF4604FEAB5054F6B4FEAFD
:1007C400376C0CF0FF1C4FEA372B0BF0FF2B4CEA75
:1007D4000B0BCDF80CB05F461F443A4485EA06077C
:1007E400274077403A4402EBF0624FEAB4048F6B3F
:1007F4004FEA376C0CF0FF1C4FEA372B0BF0FF2B42
:100804004CEA0B0BCDF810B05F461F443E4484EA1B
:10081400050707406F403E4406EBF2664FEAB0001E
:10082400CF6B4FEA376C0CF0FF1C4FEA372B0BF001
:10083400FF2B4CEA0B0BCDF814B05F461F443D442C
:1008440080EA0407174067403D4405EBF6654FEA2C
:10085400B202DDF804A088EA0A0BDDF820C08BEAB6
:100864000C0B039F8BEA070B4FEAFB7BCDF804B01C
:100874005F461F443C4482EA0007374047403C44FB
:1008840004EBF5644FEAB606DDF808A089EA0A0B22
:10089400DDF824C08BEA0C0B049F8BEA070B4FEAAC
:1008A400FB7BCDF808B05F461F44384486EA020754
:1008B4002F405740384400EBF4604FEAB505DDF8AB
:1008C40038A08AEA080BDDF828C08BEA0C0B059FD8
:1008D4008BEA070B4FEAFB7BCDF818B05F461F4449
:1008E4003A4485EA0607274077403A4402EBF0622F
:1008F4004FEAB404DDF83C8088EA0907DDF82C905F
:1009040087EA0907DDF804A087EA0A0702E000BFC6
:100914009979825A4FEAF77707973B441E4484EA51
:10092400050707406F4006EB070A0AEBF26A4FEA35
:10093400B000DDF840B0DDF838C08BEA0C060C9B43
:100944005E40029F7E404FEAF676EE4B06EB0308CC
:10095400454480EA0407574005EB070808EBFA68AA
:100964004FEAB202DDF84490DDF83CB089EA0B05A9
:10097400DDF80CC085EA0C05069F7D404FEAF5754D
:10098400EF183C4482EA000C8CEA0A0C04EB0C07D6
:1009940007EBF8674FEABA0ADDF82090DDF840B0BB
:1009A40089EA0B04DDF810C084EA0C04DDF81C901D
:1009B40084EA09044FEAF47404EB030948448AEA1C
:1009C400020C8CEA080C00EB0C0909EBF7694FEAFE
:1009D400B808DDF824B0DDF844C08BEA0C00DDF87B
:1009E40014B080EA0B0070404FEAF07000EB030C87
:1009F400624488EA0A0B8BEA070B02EB0B0C0CEB44
:100A0400F96C4FEAB7070E970A9ADDF820B082EA2C
:100A14000B07DDF804B087EA0B026A404FEAF27272
:100A240002EB030BDA440E9F87EA080B8BEA090BEF
:100A3400DA440AEBFC6A4FEAB909DDF82CB0099FE5
:100A44008BEA070B029F8BEA070B8BEA040B4FEA36
:100A5400FB7BCDF820B09B44D8440E9F89EA070B5A
:100A64008BEA0C0BD84408EBFA684FEABC0CCDF8BF
:100A74003CC0DDF830B00A9F8BEA070C069F8CEA75
:100A8400070B8BEA000B4FEAFB7BCDF824B09B44A9
:100A94000E9F5F44DDF83CC08CEA090B8BEA0A0B1D
:100AA4005F4407EBF8674FEABA0ADDF80CB0DDF8EB
:100AB4002CC08BEA0C0BDDF81CC08BEA0C0B8BEA08
:100AC400020B4FEAFB7BCDF828B09B44D944DDF8F8
:100AD4003CC08AEA0C0B8BEA080BD94409EBF76992
:100AE4004FEAB808DDF810B0DDF830C08BEA0C0B23
:100AF4008BEA060BDDF820C08BEA0C0B4FEAFB7B7C
:100B0400CDF82CB09B44DDF83CC0DC4488EA0A0BE9
:100B14008BEA070BDC440CEBF96C4FEAB7070C9734
:100B2400059FDDF80CB087EA0B0787EA050B099FE0
:100B34008BEA070B4FEAFB7BCDF80CB09B44DA44FD
:100B44000C9F87EA080B8BEA090BDA440AEBFC6A70
:100B54004FEAB909DDF804B0049F8BEA070B8BEA6E
:100B6400040B0A9F8BEA070B4FEAFB7BCDF810B00E
:100B74009B44D8440C9F89EA070B8BEA0C0BD8449E
:100B840008EBFA684FEABC0CCDF838C0DDF808B0C1
:100B9400059F8BEA070C8CEA000BDDF82CC08BEA6E
:100BA4000C0B4FEAFB7BCDF814B09B440C9F5F44C5
:100BB400DDF838C08CEA090B8BEA0A0B5F4407EBBB
:100BC400F8674FEABA0ADDF818B0DDF804C08BEA1A
:100BD4000C0B8BEA020BDDF80CC08BEA0C0B4FEA12
:100BE400FB7BCDF804B09B44D944DDF838C08AEAD5
:100BF4000C0B8BEA080BD94409EBF7694FEAB808E8
:100C0400DDF81CB0DDF808C08BEA0C0BDDF820C061
:100C14008BEA0C0BDDF810C08BEA0C0B4FEAFB7B64
:100C2400CDF808B09B44DDF838C0DC4488EA0A0BF0
:100C34008BEA070BDC440CEBF96C4FEAB7070E9711
:100C4400069F7740DDF824B087EA0B0B059F8BEAFB
:100C540007074FEAF77BCDF818B09B44DA440E9FA0
:100C640087EA080B8BEA090BDA440AEBFC6A4FEAC1
:100C7400B909DDF81CB085EA0B0B0A9F8BEA07075C
:100C8400DDF804B087EA0B0B4FEAFB770797BB4606
:100C94009B44D8440E9F89EA070B8BEA0C0BD8447B
:100CA40008EBFA684FEABC0C6640DDF82CB086EA23
:100CB4000B06029F7E404FEAF6760C961E440E9F6A
:100CC40037448CEA090686EA0A06374407EBF867D4
:100CD4004FEABA0A4540DDF80CB085EA0B05069EDA
:100CE40075404FEAF5750E951D44A9448AEA0C0532
:100CF40085EA0805A94409EBF7694FEAB8085440A6
:100D040002E000BFA1EBD96EDDF810B084EA0B0459
:100D1400079D6C404FEAF4740F941C44A44488EA81
:100D24000A047C40A4440CEBF96C4FEAB707089E14
:100D34007040DDF814B080EA0B000C9C60404FEA70
:100D4400F070109003449A4487EA080080EA09008E
:100D540082440AEBFC6A4FEAB909099D6A40019E84
:100D64007240DDF838B082EA0B024FEAF272119257
:100D7400DF4B1A4490444CEA090038400CEA09025B
:100D84000243904408EBFA684FEABC0C0A98089AAC
:100D940080EA020B029C8BEA040B0F9D8BEA050B85
:100DA4004FEAFB7BCDF820B05A461A4417444AEA6E
:100DB4000C0000EA09000AEA0C020243174407EB9C
:100DC400F8674FEABA0A0B9E099886EA000B069A5E
:100DD4008BEA020B109C8BEA040B4FEAFB7BCDF8E9
:100DE40024B05A461A44914448EA0A0000EA0C0026
:100DF40008EA0A020243914409EBF7694FEAB8088A
:100E0400039D0A9E85EA060B07988BEA000B119A4C
:100E14008BEA020B4FEAFB7BCDF828B05A461A4402
:100E2400944447EA080000EA0A0007EA0802024379
:100E340094440CEBF96C4FEAB707049C0B9D84EACD
:100E4400050B0C9E8BEA060B08988BEA000B4FEA05
:100E5400FB7BCDF82CB05A461A44924449EA070069
:100E640000EA080009EA0702024392440AEBFC6A1A
:100E74004FEAB909059A039C82EA040B0E9D8BEA9A
:100E8400050B099E8BEA060B4FEAFB7BCDF80CB0F1
:100E94005A461A4490444CEA090038400CEA0902C4
:100EA4000243904408EBFA664FEABC0CDDF8048078
:100EB400DDF810B088EA0B000F9A50400A9C60409D
:100EC4004FEAF070049005461D442F444AEA0C058D
:100ED40005EA09050AEA0C0215433D4405EBF665EB
:100EE4004FEABA0A029FDDF8148087EA0802DDF8A7
:100EF40040B082EA0B020B9842404FEAF27205922C
:100F04001A44914446EA0A0000EA0C0006EA0A027E
:100F14000243914409EBF5694FEAB606069A019C2F
:100F240082EA0400119F7840DDF80C8080EA080012
:100F34004FEAF070019004461C44A44445EA0604B8
:100F440004EA0A0405EA06021443644404EBF9645F
:100F54004FEAB505DDF81CB0DDF808C08BEA0C02D9
:100F640008984240049F7A404FEAF27202929046F7
:100F74009844C24449EA050808EA060809EA050251
:100F840048EA0208D04408EBF4684FEAB909DDF8EE
:100F940030A0DDF818C08AEA0C0B09988BEA000B24
:100FA400059A8BEA020B4FEAFB7BCDF818B0DC46BE
:100FB4009C44664444EA090C0CEA050C04EA090260
:100FC4004CEA020CB4440CEBF86C4FEAB4040E9EE9
:100FD400079F86EA070BDDF828A08BEA0A0B019825
:100FE4008BEA000B4FEAFB7BCDF81CB05E461E4437
:100FF400354448EA040606EA090608EA04021643E8
:101004002E4406EBFC664FEAB8080F9A0C9D82EA60
:10101400050B0B9F8BEA070BDDF808A08BEA0A0B84
:101024004FEAFB7BCDF830B05F461F44B9444CEA2D
:10103400080727400CEA080217434F4407EBF667FA
:101044004FEABC0CDDF840B00E988BEA0009039A15
:1010540089EA0209069D89EA05094FEAF97909EB4B
:101064000302144446EA0C0000EA080006EA0C02F3
:101074000243144404EBF7644FEAB606DDF844A0D7
:10108400DDF83CB08AEA0B00049A5040079D6840A2
:101094004FEAF0700E9005461D44A84447EA060541
:1010A40005EA0C0507EA06021543454405EBF46519
:1010B4004FEAB707DDF82080DDF840A088EA0A028D
:1010C400DDF814B082EA0B020C9842404FEAF27247
:1010D4000F921A44624444EA070C0CEA060C04EA30
:1010E40007004CEA0000104400EBF56002E000BF8A
:1010F400DCBC1B8F4FEAB404099ADDF8448082EA11
:10110400080ADDF804B08AEA0B0A8AEA090A4FEAF7
:10111400FA7A0AEB0302324445EA040C0CEA070C9F
:1011240005EA04064CEA0606164406EBF0664FEAA6
:10113400B5050A9ADDF8208082EA080CDDF808B0CB
:101144008CEA0B0C0E9A8CEA020C4FEAFC7CCDF86C
:1011540020C062461A44174440EA050C0CEA040C09
:1011640000EA05024CEA02023A4402EBF6624FEA54
:10117400B0000B9FDDF8248087EA080BDDF818C067
:101184008BEA0C0B0F9F8BEA070B4FEAFB7BCDF826
:1011940024B05F461F443C4446EA000C0CEA050CAC
:1011A40006EA00074CEA0707274407EBF2674FEA11
:1011B400B606DDF80C80DDF828C088EA0C0B079C25
:1011C4008BEA040B8BEA0A0B4FEAFB7BCDF828B0C1
:1011D4005B441D4442EA060C0CEA000C02EA0603D6
:1011E4004CEA030CAC440CEBF76C4FEAB202049DDE
:1011F400DDF82C8085EA080B0C9B8BEA030B089C1A
:101204008BEA040B4FEAFB7BCDF82CB0DE4B5C463B
:101214001C44204482EA06057D40441904EBFC6426
:101224004FEAB707059DDDF80C8085EA080B8BEAC9
:10123400090B09988BEA000B4FEAFB7BCDF80CB045
:1012440058461844064487EA020080EA0C00064423
:1012540006EBF4664FEABC0C019DDDF8108085EACC
:101264000800DDF838B080EA0B000A9D68404FEAB8
:10127400F070049005461D442A448CEA070060403F
:10128400151805EBF6654FEAB404DDF80880DDF8BF
:1012940014B088EA0B020F984240DDF82C8082EAF1
:1012A40008024FEAF272059290469844474484EA51
:1012B4000C02724007EB020808EBF5684FEAB60629
:1012C400DDF818B0019A8BEA020080EA0A00039F55
:1012D40078404FEAF070019008601844844486EA2C
:1012E40004026A400CEB020000EBF8604FEAB5051B
:1012F400DDF81CB0DDF808C08BEA0C02089F7A40C8
:10130400DDF810B082EA0B024FEAF27202924A60F0
:101314001A44144485EA060787EA0807E21902EB2F
:10132400F0624FEAB808DDF830C0069F8CEA070483
:10133400DDF824B084EA0B04DDF814C084EA0C045C
:101344004FEAF4748C60E7183E4488EA050C8CEA92
:10135400000C06EB0C0707EBF2674FEAB000079EA0
:1013640089EA060BDDF828C08BEA0C0B019E8BEA98
:10137400060B4FEAFB760696CE601E44354480EA9F
:1013840008065640354405EBF7654FEAB202DDF82E
:1013940038C00C9E8CEA060BDDF82CC08BEA0C0BD3
:1013A400029E8BEA060B4FEAFB7607960E613344E6
:1013B400984482EA00067E40B04408EBF5684FEAA0
:1013C400B707DDF83CC08CEA090B039B8BEA030BDF
:1013D4008BEA040B4FEAFB760C964E616A4B1E4473
:1013E400304487EA020C8CEA050C00EB0C0606EB91
:1013F400F8664FEAB5051095DDF838908AEA0900D9
:10140400DDF810B080EA0B05069845404FEAF57008
:10141400886100EB03094A44109D85EA070C8CEAB5
:10142400080C02EB0C0909EBF6694FEAB808DDF881
:1014340020B0DDF83CC08BEA0C02DDF814B082EA7F
:101444000B05079A55404FEAF572CA6102EB030C8B
:101454006744109D88EA050C8CEA060C674407EB88
:10146400F9674FEAB6060E96099E86EA0A0A019DB6
:101474008AEA050A0C9E8AEA060A4FEAFA7AC1F851
:1014840020A00AEB030C109D6544DDF838B08BEA0C
:10149400080C8CEA090C654405EBF7654FEAB909B9
:1014A400DDF828C0089E8CEA060C029E8CEA060C25
:1014B4008CEA000C4FEAFC7608964E62B3469B44D5
:1014C400D844DDF838C089EA0C0B8BEA070BD84402
:1014D40008EBF5684FEAB7070B9EDDF824B086EAFF
:1014E4000B0C8CEA040454404FEAF47409948C62A3
:1014F400A3469B440E9E5E4487EA090B8BEA050BC8
:101504005E4406EBF8664FEAB505DDF80CC00A9CAC
:101514008CEA040C069C8CEA040B8BEA0A0A4FEA58
:10152400FA7AC1F82CA00AEB030BD94485EA070B1D
:101534008BEA080BD94409EBF6694FEAB808DDF8E1
:1015440010C00B9C8CEA040B079C8BEA040B089CD0
:101554008BEA040C4FEAFC7CC1F830C00CEB030BA3
:101564005F4488EA050B8BEA060B5F4407EBF967D7
:101574004FEAB606DDF814B0039C8BEA040B0C9C0E
:101584008BEA0404A34601E0D6C162CA099C8BEA33
:10159400040403944FEAF4744C631C44254486EA1F
:1015A400080B8BEA090B5D4405EBF7654FEAB909B3
:1015B400019CDDF810B084EA0B04604080EA0A0064
:1015C4004FEAF07088631844804489EA06047C403A
:1015D400A04408EBF5684FEAB707029CDDF814A0B5
:1015E40084EA0A00424082EA0C024FEAF272CA63B9
:1015F400DDF834B0DBF800100B441A44164487EAD3
:1016040009006840064406EBF866CBF80060DBF896
:1016140004304344CBF80430DBF8083003EBB50561
:10162400CBF80850DBF80C301F44CBF80C70DBF817
:1016340010304B44CBF8103012B0BDE8F00F7047B7
:101644000A4B036003F18833436003F12943A3F594
:101654009613A3F68B638360A3F18833C360044BB2
:101664000361002383614361704700BF0123456721
:10167400F0E1D2C32DE9F84306460F461546436907
:10168400C3F3C508D200134443619A4202D9836963
:1016940001338361B36903EB5573B36105EB08034D
:1016A4003F2B1DD9C8F1400406EB08001C30394615
:1016B400224600F0AFFFB146304606F11C01FEF7AA
:1016C40035FFC8F17F0845450CD948463919FEF75E
:1016D4002DFF04F140027F34A54207D91446F4E7F4
:1016E400002205E022464FF0000801E04FF0000818
:1016F40006EB08001C30B918AA1A00F08BFFBDE8ED
:10170400F88300BFF0B583B005460C460023032BD5
:1017140094BF142110212144DA4302F00302D200C1
:10172400496821FA02F20DF803200133082BEED1A7
:10173400204621490122FFF79DFF636903F4FC73EE
:10174400B3F5E07F0CD01D4F0126204639463246C2
:10175400FFF790FF636903F4FC73B3F5E07FF4D102
:10176400204669460822FFF785FF00239908DA43DB
:1017740002F00302D20054F8211021FA02F2EA54D2
:101784000133142BF2D104F11C000021402200F09B
:101794005FFF20460021142200F05AFF04F11400D8
:1017A4000021082200F054FF68460021082200F0BE
:1017B4004FFF03B0F0BD00BF0C430000084300001E
:1017C40003460244904205D253F8040B41F8040B3B
:1017D4009A42F9D8704700BF00B599B00120694614
:1017E40000F08EFA19B05DF804FB00BF00B5A1B09B
:1017F400012008A900F084FA012006A900F06AFA81
:1018040006480699099A01ABFEF752FD0FA801A9F3
:10181400FEF77AFD21B05DF804FB00BFC517000098
:1018240000B5A1B0012008A900F06AFA012006A9B8
:1018340000F046FA06480699099A01ABFEF738FD0E
:101844000AA801A9FEF760FD21B05DF804FB00BF02
:10185400F5040000F0B5ADF66C0D00F0DBFD0120E1
:101864000DF6080100F04CFA01200DF5006100F0BE
:1018740027FADDF8007801200DF5006100F02AFA5E
:10188400DDF80038DDF80C681E44B34214D21C465F
:10189400FF1A4FF40065381969462A46FEF728FEF8
:1018A400204602F0FFFC204669462A4602F0F2FC7C
:1018B40004F50064A642EED800F0F2FD0DF66C0DBE
:1018C400F0BD00BF00B583B00120694600F002FA04
:1018D400009B064A93601A6882F3088882F3098899
:1018E4005B689F4603B05DF804FB00BF00ED00E0B9
:1018F40070B582B000F076F8204B0222DA6501223E
:10190400DA654FF40071C3F8A4104FF40041596133
:1019140001A81B4900F07EFE00F034F8FEF7A2FD9A
:10192400FEF786FDFFF758FFC8B1FFF75FFF10B160
:10193400FFF7C8FF13E0FFF773FF80B10F4B0222DC
:101944009A6501229A65FFF785FFFFF74FFF30B1D3
:101954004FF40072094BC3F8A020FFF7B3FF074C04
:1019640002252E46A6654FF4FA7000F09DF9E56550
:101974004FF4FA7000F098F9F4E700BF00600040FB
:10198400106F00000023024A1370024A136070476C
:101994004C0400204804002070B582B004460D4673
:1019A40016460C48007860B920462F2100F01AFE34
:1019B40000B1441C00960848084922462B4600F012
:1019C400E7FD0122034B1A70054B1A6801321A60B5
:1019D40002B070BD4C0400205004002010430000ED
:1019E4004804002010B582B0A448012100F0E4FBB3
:1019F400002001460246034600F0AEFC002005210B
:101A04000246034600F0A8FC0020062102460346D5
:101A140000F0A2FC022001460022134600F09CFCC8
:101A2400022003210022134600F096FC0220042128
:101A34000022134600F090FC0220052100221346E8
:101A440000F08AFC042008210022134600F084FCE4
:101A540004200D210022134600F07EFC04200E21F8
:101A64000022134600F078FC04200F2100221346C4
:101A740000F072FC05200C210022134600F06CFCDF
:101A8400052002210422002300F066FC0320062125
:101A94000022134600F060FC0220012104220B46C0
:101AA40000F05AFC022000210422012300F054FC1F
:101AB400042009210246012300F04EFC00200F21DE
:101AC4000422012300F048FC0020082104220346DC
:101AD40000F042FC022006210422002300F03CFC1A
:101AE400022007210422002300F036FC02200821F2
:101AF4000246002300F030FC00200A2102220346A3
:101B040000F02AFC0124009400200A2122462346E6
:101B140000F0EAFB032008210422234600F01CFC09
:101B2400002004212246034600F016FC0094002005
:101B340004212246234600F0D7FB00200221042280
:101B4400034600F009FC002003210422034600F0B0
:101B540003FC04200B212246002300F0FDFB04209B
:101B64000A210246002300F0F7FB04200C21024660
:101B7400002300F0F1FB052000210A460B4600F08B
:101B8400EBFB052021460022134600F0E5FB022072
:101B940009212246002300F0DFFB009402200921E2
:101BA4002246234600F0A0FB03200721002213460F
:101BB40000F0D2FB02200A210422002300F0CCFB17
:101BC40002200B210422002300F0C6FB052001465D
:101BD4000422002300F0C0FB05200A212246002332
:101BE40000F0BAFB05200B212246002300F0B4FBD1
:101BF400032021460222234600F0AEFB03200021ED
:101C04000422234600F0A8FB0320022104222346D9
:101C140000F0A2FB002021460422034600F09CFBB6
:101C2400032005210422002300F096FB0320014633
:101C34000422234600F090FB0320042102222346C1
:101C440000F08AFB0094032004212246234600F07E
:101C54004BFB002009210422034600F07DFB2046B3
:101C64000B210422002300F077FB20460C210422E0
:101C7400002300F071FB02B010BD00BF00D20200CF
:101C840001387FF4FDAF704708B5054B03FB00F046
:101C9400044AA2FB0030800CFFF7F2FF08BD00BF2E
:101CA40000366E01819F5E1638B5044630B14FF49C
:101CB400FA552846FFF7E4FF013CFAD138BD00BFCE
:101CC400012805D100230B604FF480234B6070473B
:101CD4000020704710B1012807D00EE000230B60EC
:101CE4004FF4E0434B60012070474FF400430B6016
:101CF4004FF460334B60012070470020704700BFF1
:101D040008B5084647F604015E2200F083FC4FF450
:101D1400F0431868024B984214BF0020012008BD0C
:101D24001ADA01B0254BDB6A03F47053B3F5805F14
:101D34003FD0B3F5005F03D0B3F5006F06D102E0E6
:101D44001F4B186870471F4B186870471B4BDB68A4
:101D540003F4E063B3F5007F13D004D8EBB1B3F51B
:101D6400807F10D023E0B3F5806F25D0B3F5A06F4A
:101D740003D0B3F5407F1AD101E0134870471348EC
:101D8400704713487047134BD86C000E124B134A1C
:101D9400122894BF1046184670470E4BD86C000E9C
:101DA4000F4B104A122894BF104618467047002063
:101DB40070474FF4004070470B48704700800C4058
:101DC4003C03002040030020003FAB01809FD5006E
:101DD400C0D8A700B081E00F40B56400C0CF6A004E
:101DE400804F120040420F00406F400108B5FFF7DA
:101DF40099FF074B1A68C2F382320132B0FBF2F04A
:101E04005B6803F00F03D840024B186008BD00BFA5
:101E140000800C40D0040020704700BF4FF4004005
:101E2400704700BF4FF47A70704700BF014B1868C9
:101E3400704700BF3C030020114BDB6CC3F3074326
:101E44004A2B06D04B2B18D0482B0E4818BF002025
:101E540070470D4A116901F03F019369D269C2F3D9
:101E6400031242EA012203F0F0031343074A054830
:101E7400B3F5017F28BF104670470448704700BF80
:101E8400B081E00F0048E801D0FF0FE000366E019A
:101E9400114B5B6903F4E063B3F5007F1AD004D8F7
:101EA40083B1B3F5807F0BD012E0B3F5C06F0DD0D2
:101EB400B3F5E06F08D0B3F5407F09D10748704708
:101EC40007487047074870470748704707487047F6
:101ED400002070470648704700800C4040420F00C5
:101EE400C0D8A700809FD500406F4001003FAB01E0
:101EF400C0CF6A0008B5194B9A6A430022FA03F36B
:101F040003F00303032B25D8DFE803F01A020508C6
:101F1400FFF784FF08BDFFF789FF08BD0F4B5B681F
:101F240013F4807F04D10D4B1B6813F0804F03D052
:101F3400FFF75CFF800808BDFFF758FF400808BDA5
:101F4400064B9B6A0430800033FA00F004D0FFF79C
:101F540069FF08BD002008BD002008BD00800C40BA
:101F640000F00F000138042861D8DFE800F0031501
:101F74002C434E00344BDB6A03F47053B3F5805F9B
:101F840057D0B3F5005F05D0B3F5006F0CBF042044
:101F940005207047022070472B4B9B6A03F0030314
:101FA400022B48D0032B03D0012B03D1032070470D
:101FB40006207047244B9B6A03F48033002B14BF24
:101FC400092001207047204B9B6A03F00C03082B67
:101FD40033D00C2B03D0042B03D1032070470620ED
:101FE4007047194B9B6A03F48013002B14BF09201C
:101FF40001207047144B1B6813F080531FD0B3F1BA
:10200400805F0CBF0820012070470F4BDB6A03F48C
:102014006033B3F5803F14D0B3F5003F05D0B3F57A
:10202400004F0CBF08200120704703207047002098
:102034007047032070470220704702207047072032
:1020440070470220704700BF00800C4008B500F4C0
:102054007810B0F5801F5AD013D8B0F5802F3DD03A
:1020640004D818B3B0F5003F2AD09CE0B0F5002F97
:102074003BD0B0F5202F41D0B0F5C02F40F0938075
:102084002FE0B0F5B01F58D006D8B0F5901F47D058
:10209400B0F5A01F48D086E0B0F5D01F6CD0B0F5E5
:1020A400E01F6CD0B0F5C01F7DD14FE0FFF73AFEC2
:1020B4003E4B1B68C3F382330133B0FBF3F008BD1E
:1020C400FFF730FE394B1A68C2F382320132B0FB9B
:1020D400F2F09B6803F00F03D84008BDFFF786FEBB
:1020E40008BD0020FFF706FF08BD0020FFF702FF30
:1020F4002E4B9B6EC3F30313D84008BD0020FFF79B
:10210400F9FE2A4B9B6EC3F30323D84008BD00207D
:10211400FFF7F0FE254B9B6E03F00303D84008BD88
:102124000120FFF7E7FE08BD0120FFF7E3FE1F4B88
:102134001B6F03F00303D84008BD0120FFF7DAFE4C
:102144001A4B1B6FC3F30113D84008BD1848FFF79F
:1021540007FF07280BD008280CD1FFF7E3FD134B2A
:102164001B68C3F382330133B0FBF3F008BDFFF700
:102174008FFE08BD002008BDFFF78AFE08BD0D488C
:10218400FFF7EEFE032806D0082807D0022808D15E
:10219400FFF74CFE08BDFFF741FE08BDFFF7C2FD87
:1021A40008BD002008BD002008BD00BF00800C4011
:1021B4000400180005231C0070B504460D46C0F346
:1021C4000323013B052B37D8DFE803F0122E03204D
:1021D40023301A48FFF73AFF0646FFF72DFE8642E2
:1021E40026D90123164A136028321360154920E0CA
:1021F400C0F30434144902E0036D1A42FCD101F126
:10220400047104EBC104A400256070BD01220F49D0
:1022140001E010220E49C4F304340E4B5B6D13F03D
:10222400010FECD10B48E7E70B4902E00B4900E052
:102234000449C4F30434E2E770BD00BF2000040085
:102244007800904340800C4008800C4058800C403B
:1022540060800C4000800C4044800C4078800C402E
:102264002DE9F0471F4A02F580531B6841F20C0127
:10227400525812EA030A00D5FEE71A4BD3F83890F5
:102284000AEA09044FF002081F4603F5805608368F
:1022940021E014F0010F16D0BB680122AA4032607D
:1022A400284603EB0513DB686BB1197A81F0010250
:1022B4001A72D3F800C0BCF1000F04D0003118BF6B
:1022C40001215A68E04701356408E2D12AEA090489
:1022D400B8F1010803D0002CF8D00025D9E7BDE8F7
:1022E400F08700BF00200C40F0B407290ED8184C2A
:1022F400D4F800718D000F26AE4027EA060600FAD6
:1023040005F546EA0500C4F800010FE0104CD4F8C6
:102314000471A1F10805AD000F26AE4027EA0606B8
:1023240000FA05F546EA0500C4F804010948084422
:1023340080000260C0F88030012303FA01F1044BED
:10234400C3F81C119DF81030C0F80031F0BC704780
:102354000060004040088310F0B4144692B153B1B9
:1023640001258D4000EBC002920002F1804202F58B
:10237400C042156106E001258D4000EBC006B600A1
:10238400224A9551072911D800EBC002920002F1AC
:10239400804202F5C04257688D000F26AE4027EAFE
:1023A400060604FA05F53543556016E0184DC600D7
:1023B400321805EB8202976801F18042083A9200D4
:1023C4004FF00F0C0CFA02FC27EA0C0704FA02F295
:1023D4003A43064405EB8605AA60A4B95BB1012320
:1023E40003FA01F100EBC000800000F1804000F529
:1023F400C040016107E0012303FA01F100EBC000D2
:102404008000024B1950F0BC704700BF14600040BC
:102414000060004010B51E4B41F67132DA639A68D1
:1024240022F001029A604FF4D010FFF70FFE194B0F
:10243400984215D900EB800100EB4101144A136D59
:10244400154CA4FB0101C908144CA4FB0101890C1F
:10245400013123F4803323F03F030B43136510BD94
:10246400C0EBC001C0EBC101094A136D23F48033F2
:1024740023F03F0343F48033074CA4FB0101C90854
:10248400064CA4FB0101890C01310B43136510BDFB
:1024940000000C40C0CF6A00CDCCCCCC83DE1B4303
:1024A400034B9A6822F001029A600022DA637047B3
:1024B40000000C4070B5041EBABF64420126002619
:1024C400002C12DD0E4D00220E4B14F0010F07D02C
:1024D4001046194655E9022301F0F8FA02460B4664
:1024E40064100835002CF0DC01E00022054B26B115
:1024F4000020044901F0A0FB70BD1046194670BDD0
:10250400304300000000F03F38B50446806840B115
:10251400236862685D1C954208BF0021934238BF5E
:10252400C154E36833B120686268904202D208461D
:102534002146984723680133236038BD70B515469A
:102544004C1E08D4C6B228463146FFF7DDFF013CD5
:10255400B4F1FF3FF7D170BD08B510F0100F07D1EB
:1025640000F4007000280CBF20203020FFF7E6FFA5
:1025740008BD00BF0028B8BF4042704700B501F055
:10258400D9F8024B18445DF804FB00BF08000000B2
:102594000EB400B586B007AA52F8041B0592039046
:1025A400002304936FF00043029301A800F0E2F8C3
:1025B40006B05DF804EB03B0704700BF10B40378B5
:1025C4004BB151B1431C1A460139013314782CB173
:1025D4000029F8D102E0024600E00246101A5DF834
:1025E400044B704730B4034613F8012B002AFBD187
:1025F400013B0446CDB21846A34204D0013B027805
:10260400AA42F8D104E01B78C9B28B4218BF00205B
:1026140030BC7047844640EA010313F0030F0DD128
:10262400242A0BD32DE9F00FB1E8F80FA0E8F80F36
:10263400A2F12402242AF7D2BDE8F00F002A05D023
:1026440011F8013B00F8013B013AF9D160467047AB
:102654008446002A2AD010F0030F04D000F8011B8E
:10266400013A23D0F7E7282A1CD3A2F128022DE946
:10267400F00F01F0FF0141EA012141EA014141EA81
:1026840001610B460C460D460E460F4688468946A8
:102694008A468B46A0E8FA0F283AFBD2BDE8F00F31
:1026A400283203D000F8011B013AFBD16046704781
:1026B40000F1010110F0030F11D010F8012B002AD2
:1026C40023D010F0030F0AD010F8012B002A1CD0DD
:1026D40010F0030F03D010F8012B002A15D02DE9B8
:1026E40070004FF001324FF0803350F8044BA4EBEC
:1026F400020525EA04051D4000D1F6E7A0F1040017
:1027040070BC10F8012B002AFBD1A0EB010070472C
:102714002DE9F0004FF000044FF000054FF00106E2
:102724004FF000078B4208BF824209D892185B41E0
:1027340002D2B6197F41F5D95FEA33034FEA320278
:10274400994208BF904205D3801A61EB0301A41992
:1027540045EB07057F085FEA360603D25B084FEABC
:102764003202EDE702460B4620462946F0BC70478C
:10277400000000002DE9F04F99B089460F92002324
:1027840003600746029100F0A0BF252902D14FF053
:10279400000806E03846FFF7B7FE029600F095BF42
:1027A4002E46354615F8010BA0F120033E2B36D8F2
:1027B400DFE803F020353523353535263535352C1E
:1027C400352F3535323535353535353535353535BE
:1027D40035353535353535353535353535353535A5
:1027E4003535353535353535353535353535353595
:1027F4003535290048F04008D2E748F08008CFE793
:1028040048F40048CCE748F48058C9E748F0200869
:10281400C6E748F01008C3E748F40078C0E72A2860
:1028240007D0A0F13003DBB2092B88BF002419D8EC
:102834000BE00F9A111D0F911468002CBCBF644269
:1028440048F01008B51C70780CE0002404EB8404F4
:10285400303800EB440415F8010BA0F13003DBB26F
:10286400092BF3D924EAE4740E942E2824D1287871
:102874002A2808D00135A0F13003DBB2092B88BF28
:10288400002616D806E00F9B1A1D0F921E68687862
:1028940002350CE0002606EB8606303800EB4606CF
:1028A40015F8010BA0F13003DBB2092BF3D9002E8C
:1028B40003DB48F4807800E00026742801D07A28ED
:1028C40003D16C1C029428782DE06A2805D148F0C5
:1028D40002086C1C0294287825E06C280DD1287815
:1028E4006C2805D148F00208AC1C029468781AE000
:1028F4000135029548F0010815E04C2802D148F052
:1029040001088EE068280DD12878682805D148F0A0
:102914000808AC1C0294687805E00135029548F07B
:10292400040800E0029578287AD8DFE810F0E00681
:1029340079007900790079007900790079007900CB
:1029440079007900790079007900790079007900BB
:1029540079007900790079007900790079007900AB
:10296400790079007900790079007900790079009B
:10297400790079007900790089007900790079007B
:10298400790079007900790079007900790079007B
:10299400790079007900790079007900790079006B
:1029A400790079007900790079007900790079005B
:1029B4007900790079007900AF01B401B901790097
:1029C400790079007900790079007900790079003B
:1029D40079007900790079007900790079000F0194
:1029E400790079007900790079007900790079001B
:1029F400790079008F003D01B101B601BB01790076
:102A04003D017900790079007900AD002801FC00CE
:102A140079007900CD0079003501790079001A0137
:102A2400029DAD4B1C68002C00F04E8600960FAB47
:102A34000193394642460E9BA047029500F045BEDD
:102A440038462521FFF760FD00F03FBE0F9B1A1D9D
:102A54000F921C780E9A551E404629463A46FFF7B7
:102A64007BFD38462146FFF74FFD02E04FF0FF346F
:102A7400039418F0100F00F02886202029463A46C7
:102A8400FFF75CFD00F021BE18F0080F07D00F9B84
:102A94001A1D0F921A683B68137000F016BE18F0E6
:102AA400020F09D00F9B1A1D0F9219683A68002370
:102AB400C1E9002300F009BE0F9B1A1D0F921A688A
:102AC4003B68136000F001BE0F9B1A1D0F92D3F8F0
:102AD40000A04346814ABAF1000F08BF924623F48E
:102AE400007813F4807F05D050463146FFF766FD29
:102AF400044603E05046FFF7DBFD04460E990D1B28
:102B0400404629463A46FFF727FD621E0392002CF1
:102B1400AFD053460AF1010A38461978FFF7F4FC9E
:102B2400013CF6D1A2E70F9B1A1D0F921B689A462F
:102B34004FF0000B08F08003002B14BF2324002463
:102B4400039448F48078082600F0B8BC08F08003A9
:102B5400002B48F4005843F2580308BF00230393A2
:102B640007E008F08003002B43F2780308BF00233A
:102B7400039318F4807F1ED028F400781BE008F03B
:102B84008003002B14BF30240024039418F4807FA6
:102B940011D028F400780EE018F4807F09D028F4CE
:102BA40000780024039406E048F480480024039449
:102BB40001E00024039418F4804F39D018F0020F78
:102BC40009D00F9B073323F0070303F108020F9288
:102BD400D3E900AB06E00F9B1A1D0F921B689A46BF
:102BE4004FEAE37B18F0040F04D00FFA8AFA4FEA95
:102BF400EA7B06E018F0080F1CBF5FFA8AFA4FF070
:102C0400000BBAF1000F7BF1000106DADAF1000AD9
:102C14006BEB4B0B2D24039430E018F0200F2BD1D9
:102C240008F04003002B039C18BF2024039425E0E4
:102C340018F0020F09D00F9B073323F0070303F1A9
:102C440008020F92D3E900AB06E00F9B1A1D0F9206
:102C54001B689A464FF0000B18F0040F04D01FFABB
:102C64008AFA4FF0000B09E018F0080F06D05FFA5B
:102C74008AFA4FF0000B01E02B24039418F4807FB0
:102C840000F01F8428F4007800F018BC48F40058C1
:102C940048F4806808E048F4005848F4006803E009
:102CA40048F4005848F440680F9B073323F00703A7
:102CB40003F108020F92D3E90045A246AB4618F48B
:102CC400807F0DD06EB908F44063B3F5406F14BF34
:102CD4000026012605E000BFD4040020BC43000008
:102CE40006262046294601F03FF9F8B12046294638
:102CF4000022002301F0FCF840B108F40051694BB4
:102D0400694A00290CBF92469A460CE008F4005127
:102D1400664B674A002908BF134618F0200F14BFFA
:102D24009A4603F1010A28F48073D3E62046294623
:102D340001F022F950B108F400515E4B5E4A0029BB
:102D44000CBF92469A4628F48073C3E6204629466F
:102D540001F006F938B148F060080C9405F100411F
:102D64000D91DDE90CAB54465D465046594617AA11
:102D740001F00AF9179B03EB4303504A82FB031249
:102D8400DB17C3EBA20317935046594600220023D6
:102D940001F05CF818B11DE0179B013317931798E5
:102DA4000130FFF787FB02460B462046294601F017
:102DB400BBF80028F0D102E0179B013B179317984A
:102DC400FFF778FB02460B462046294601F090F8AF
:102DD4000028F1D108F44069B9F5806F0AD0B9F53B
:102DE400406F40F06B81179B9E4203DD13F1040F8B
:102DF40080F264811798B0F59A7F09D1204629465C
:102E040026A3D3E9002300F017FF82468B460AE08D
:102E14004042FFF74FFB02460B462046294600F08E
:102E240055FE82468B46504659460022002301F047
:102E34000DF800287BD15046594601F095F850B959
:102E4400CDE904AB5046594600221D4B01F034F83D
:102E5400002837D14DE0504659460022002301F0A6
:102E640047F840B108F400510E4B0F4A00290CBF3B
:102E740092469A460CE008F400510C4A0C4B002987
:102E840018BF134618F0200F14BF9A4603F1010A25
:102E940028F480731EE600BFAFF30080A0C8EB8562
:102EA400F3CCE17F944300009C430000A443000062
:102EB400AC430000B4430000B84300006766666694
:102EC40000002440179D0135DDE904AB2C46504633
:102ED40059460022924B00F0AFFE82468B460135E4
:102EE40000228F4B00F0E8FF0028EFD1CDE904ABBE
:102EF4001794CDE904AB504659460022894B00F0A3
:102F0400F7FFA0B1179CDDE904AB013C50465946DC
:102F14000022834B00F0DAFD82468B460022814B6F
:102F240000F0E6FF0028F0D1CDE904AB179426B1F8
:102F3400B9F5406F08BF06F1FF367042FFF7BAFAE1
:102F44000022794B00F0C2FD02460B46504659461A
:102F540000F078FC04460D4682468B460022704BF6
:102F640000F0AAFF50B1179B01331793204629465E
:102F740000226B4B00F060FE82468B46002E00F070
:102F8400BA8308F40863B3F5006F40F0C083102ED1
:102F9400A8BF10263046FFF78DFA02460B4650466E
:102FA400594600F093FD00F023FC04460D4654EA14
:102FB400050200F09F83002E00F09D830A22002367
:102FC400FFF7A6FB52EA030140F0A183013E20462D
:102FD40029460A220023FFF79BFB04460D46002ED8
:102FE40000F089830A220023FFF792FB52EA0301CF
:102FF400ECD08CE30E9C013C0E9418F4805F38D026
:10300400179C4A4B83FB0413A3EBE47303EB4303C6
:10301400E31A0233042B04D8DFE803F0061626066D
:103024001600DDF80C9021E05046594600223C4B36
:1030340000F04CFD82468B46013C17940E9C013CEB
:103044000E944FF0020911E0504659460022384BC5
:1030540000F03CFD82468B46023C17940E9C023CD9
:103064000E944FF0030901E04FF0010926EAE676D9
:1030740001E04FF0010918F0600F05D0DDF8388049
:1030840008F1FF38CDF838801798FFF773FA6328F2
:1030940002DD0E9C013C0E945046594600F0A8FBFC
:1030A40004460D4600F09AFB02460B46504659462C
:1030B40000F0C6FB82468B460396C2E018F4806F8C
:1030C40029D0179B0E2B28DCDB433344102BA8BFDD
:1030D4001023039318F0800F2DD163B31E4630469E
:1030E400FFF7E8F902460B462046294600F0EEFCBD
:1030F40000220D4B00F0A6FB00F09EFF0022084BBF
:1031040000F0E6FF0022002300F0A0FE90B1013E93
:10311400E5D103960FE003960DE0002103910AE048
:10312400000024400000F03F0000E03F5655555594
:1031340000005940039628F48062049217981038CE
:1031440003994B429842B8BF1846FFF7B3F94FF0C2
:10315400FF3200F03FFF02460B462046294600F0AE
:1031640071FB82468B46CDE906AB17980130FFF719
:10317400A1F902460B46DDE9060100F0D5FE10B1C7
:10318400179B01331793179B002B29DB102B14DD9E
:10319400A3F1100017904042FFF78CF902460B464A
:1031A400DDE9060100F092FC00F022FB04460D4626
:1031B4004FF0000A4FF0000B19E0DDE9060100F0C2
:1031C40017FB04460D4600F009FB02460B46DDE9F9
:1031D400060100F035FB82468B460023179306E078
:1031E40000231793002400254FF0010911E0002D5E
:1031F40008BF0A2C0BD38C494FF0010909F10109CE
:10320400F1E902239D4208BF9442F7D201E04FF056
:103214000109039A4A44179B13440E9AD31A0E9336
:10322400039B13B918F0800F02D00E9901390E9147
:1032340018F0600F05D0DDF8388008F1FF38CDF8BC
:1032440038800E9921EAE1710E91DDF8108018F4AE
:10325400047F0BD151B14FF020080E46013E384691
:103264004146FFF751F9002EF8D10E96DDF8108093
:1032740018F0200F09D008F04003002B38460CBF8B
:103284002B212D21FFF740F908E0DDF8108018F01C
:10329400400F03D038462021FFF736F9DDF81080BF
:1032A40018F0100F0CD10E9951B14FF030080E46A2
:1032B400013E38464146FFF727F9002EF8D10E9615
:1032C4005A4B03EBC90830263B464F469946013F0B
:1032D40078E902239D4208BF94420AD33146013162
:1032E400C9B2A41A65EB03059D4208BF9442F6D205
:1032F40000E031464846FFF707F9002FE7D14F4673
:10330400049C14F400650CD0179B002B09DD3024B9
:10331400013B179338462146FFF7F6F8179B002B1D
:10332400F6DC039C34B9DDF8108018F0800F40F00F
:10333400F68160E038462E21FFF7E6F8039B102B58
:10334400A8BF102323EAE379039CC9EB04087DB1E9
:103354001798C0EB0900FFF7ADF802460B4650463C
:10336400594600F0B3FB00F043FA04460D460CE066
:103374004846FFF79FF802460B465046594600F070
:10338400A5FB00F035FA04460D46B9F1000F24D030
:10339400264E06EBC906CDF80C904FF03009CDE966
:1033A40006ABB246039E013E7AE902239D4208BF62
:1033B40094420AD349460131C9B2A41A65EB030504
:1033C4009D4208BF9442F6D200E049463846FFF7D2
:1033D4009BF8002EE7D1039601E0CDF80C90B8F1EC
:1033E400000F08D030244546013D38462146FFF7FA
:1033F4008BF8002DF8D1DDF8108018F4806F4FD0D1
:1034040008F40053002B38460CBF65214521FFF713
:103414007BF8179B002B0BDA38462D21FFF774F845
:10342400179B5B42179307E0D0430000C84300009A
:1034340038462B21FFF768F8179B632B14DD9E4C4D
:1034440084FB0321DB17C3EB611130313846C9B269
:10345400FFF75AF8179B84FB0384DA17C2EB641254
:10346400642101FB12331793179B944C84FB0321B3
:10347400DB17C3EBA10130313846C9B2FFF744F87A
:10348400179B84FB0384DA17C2EBA40202EB8202CB
:10349400A3EB420303F130013846C9B2FFF734F815
:1034A4000E9C002C00F0118120240E9D013D384615
:1034B4002146FFF729F8002DF8D106E118F4807FA2
:1034C40000D101265838202800F2A680DFE800F059
:1034D40025A4A4A4A4A4A4A4A4A4A4A41BA4A4A4B0
:1034E400A41BA4A4A4A4A41125A4A4A4A41BA4A4BC
:1034F400250052465B465AEA0B0408BF4FF0000908
:1035040000F08F8041E054465D465AEA0B0108BF43
:103514004FF0000900F085804DE052465B465AEAC0
:103524000B047CD04FF0000908F40054DFF894E158
:10353400634DCC46CDE904ABC2465CB14FF00F08F5
:1035440008EA0208A84498F800900DF144080CF821
:1035540008900AE04FF00F0808EA0208F04498F8CF
:1035640000900DF144080CF808900CF1010C1009BE
:1035740040EA0370190902460B4650EA0108DCD1FF
:10358400D046E146CDE90A014BE04FF0000902F0D4
:103594000705303511AC09F8045009F10109D008C8
:1035A40040EA4370D90802460B4650EA0104EED1C2
:1035B400CDE9080135E04FF0000908F40041049119
:1035C400CDE906ABB3460E465EB109F00303032B07
:1035D40007D118AB4B444FF02C0203F81C2C09F113
:1035E40001090DF1600ACA44204629460A22002333
:1035F400FFF78EF830320AF81C2C09F10109204635
:1036040029460A220023FFF783F804460D4654EAAC
:103614000503D9D15E4604E04FF0000901E04FF004
:103624000009C9EB060525EAE5750E994C1BC9EBA3
:103634000404039AFF2A88BF04F1FF34039B03B1F7
:10364400013C18F4007F05D1404621463A46FEF776
:1036540083FF00240399FF2904D93846C1F30721C5
:10366400FEF752FF039A1AB13846D1B2FEF74CFF67
:10367400404621463A46FEF76FFF302029463A4637
:10368400FEF75CFFB9F1010303930BD411ADA94418
:10369400384619F8011DFEF737FFA945F8D14FF058
:1036A400FF31039118F0100F0FD0202021463A4625
:1036B400FEF744FF09E000BF1F85EB5167666666AD
:1036C40070430000844300000295029C661C21782C
:1036D40000297FF45AA8BB46BB682BB13A687968C5
:1036E4008A423CBF00219954DBF800001EE04FF0F1
:1036F400FF301BE0002628F4006404940E9CA31BF6
:10370400053B0E9318F0800F7FF474AC75E428F435
:10371400006404940E9CA31B053B0E936AE4384694
:103724002E21FEF7F1FEDDF80C900DE619B0BDE890
:10373400F08F00BF004870475015002050EA010385
:1037440008BF704711F000424FEA125242F48062FF
:1037540042F03D0240F104800023404263EB01014A
:10376400002902BF01460020203AB1F5803F3FBF47
:10377400103A090441EA10410004B1F1807F3FBFCF
:10378400083A090241EA10610002B1F1805F3FBFCB
:10379400043A090141EA1071000111F0404F01BFE0
:1037A400023A890041EA9071800009425FBF4900F2
:1037B40041EAD0714000013A83054FEAD02040EA43
:1037C40041504FEAD12108BF10F0010F01EB025123
:1037D40098BF7047013041F10001704750EA01037E
:1037E40008BF70475FF4806242F03D02FFF7B8BF44
:1037F4004B001AD25A0DA2F54072FF3A15D4D2F1F9
:103804003F0215DBC90241EA5051C00241F00041B8
:10381400202A22BF08460021B2F12002D141D04023
:1038240048409140D14048407047002000217047F3
:103834006FF000010846704781F0004183F00043B7
:1038440083F00043F0B491EA030F00F18E80841AF0
:1038540071EB030603D212197341001BB1414FF0FF
:103864007F4646F4600616EA410F08BF62E0B6EBF5
:10387400410F98BF69E04FEA1154A4EB1357B143C9
:1038840041F4801116EA430F07BF00230022B3431B
:1038940043F48013D7F1200634D303FA06F5401914
:1038A40041F1000122FA07F5401923FA07F541EB2B
:1038B400050102FA06F211F4001F19D121F4801156
:1038C40001EB0451F0BCB2F1004F08BF10EA500FF5
:1038D40050F1000041F100014FF07F4343F46003D5
:1038E400B3EB410F88BF7047090D090500207047ED
:1038F40049085FEA30005FEA320228BF42F0010261
:103904000134DBE7203F402F19D223FA07F5401991
:1039140041F10001C7F12006124218BF012203FA47
:1039240006F52A43C7E711EA560F04BF0020002119
:10393400F0BC704701F000410020F0BC704721F456
:10394400801101EB0451F0BC7047004218BF41F0F4
:103954000101B6EB410F04BFF0BC70474FF0FE41CC
:1039640041F478010020F0BC704783F00043841ACE
:1039740071EB030705D287F00047001BB941121908
:103984007B415FF07F4656F4600616EA430FCAD0C7
:10399400B6EB410F40F28C800C0DA4EB1357C90217
:1039A40041EA5051C00241F00041DB0243EA525364
:1039B400D20243F00043D7F120065AD302FA06FCA0
:1039C400FA4003FA06F52A43FB401CEA0C0F18BF21
:1039D40042F00102801A9941E30A6405640D11F072
:1039E400404F2ED427D1002902BF01460020203C9D
:1039F40000295BD0B1F5803F3FBF103C090441EA88
:103A040010410004B1F1807F3FBF083C090241EA44
:103A140010610002B1F1805F3FBF043C090141EA3B
:103A24001071000111F0404F01BF023C890041EACE
:103A34009071800009425FBF013C490041EAD071A6
:103A44004000002C11DD420521F00041C00A40EA8B
:103A54004150C90A41EAC371460872F1004250F16B
:103A6400000051EB0451F0BC70470020D907F0BCB2
:103A74007047A7F12007202F0CD2C7F1200603FAC4
:103A840006F5FB402A4318BF43F00103C01A61F155
:103A94000001A1E721F00041C00A40EA4150C90AEF
:103AA40001EB0451F0BC704700200021F0BC7047CA
:103AB400004218BF41F00101B6EB410F7FF44EAF55
:103AC400B6EB430F3FF44AAFF0BC7047F0B5574F25
:103AD40081EA030517EA010E1EBF9EEA070F17EAE3
:103AE400030494EA070F64D04EEAD57EA64421EA83
:103AF400470141F4801123EA470343F48013A1FBF7
:103B04000247A0FB036536197D41A1FB034747F13A
:103B14000003A0FB0217F619654153F100030942A3
:103B240018BF46F001061427B3F5007F47F10007DC
:103B340034BF3F4A3F4ABEEB020E31D4C7F12004E2
:103B440003FA04F105FA04F025FA07F2114326FA00
:103B540007F2104316FA04F421F480114FEA5E07C9
:103B640041EA47010AD0B4F1004F50F1000041F19D
:103B74000001B4F1004F08BF20F001002B4F1EEAF2
:103B8400070F10D041EACE71BE453CBFBDE8F040FE
:103B940070472649002041EACE71BDE8F0407047E5
:103BA4001EEB020EF5D44FEACE710020BDE8F040C2
:103BB4007047394204BF01F000410020004218BFA1
:103BC40041F001013B4204BF03F0004300221242D2
:103BD40018BF43F0010307EA0304BC4218BF9EEA7E
:103BE400070F05D005F000410020BDE8F040704704
:103BF40021F0004123F00043B9420FD8BB420DD855
:103C0400002918BF002B09D005F0004141F0FE4106
:103C140041F470010020BDE8F04070474FF0FE41D0
:103C240041F478010020BDE8F04070470000F07FC7
:103C34000000F03F0000E03FF0B581EA030E0EF013
:103C4400004E814F17EA41051EBF95EA070F17EA98
:103C5400430494EA070F00F0C5806D0DA5EB54579B
:103C640007F580674FF0004646EAC12444EA505401
:103C7400C00246EAC32343EA5253D202801A9C414B
:103C840004D20018644180185C41013F5B084FEA8C
:103C940032020025002140F001004FF0070604E045
:103CA400801A9C4136D340416441801A9C4136D3EA
:103CB40040416441801A9C4136D340416441801A9A
:103CC4009C4136D340416441801A9C4136D34041E3
:103CD4006441013E17D0801A9C4136D3404164416F
:103CE400801A9C4136D340416441801A9C4136D3AA
:103CF40040416441090201EB15612D02454020F069
:103D0400FF004540CCE7801A9C4156D335E080182B
:103D14005C41C8D20018644180185C41C8D20018C4
:103D2400644180185C41C8D20018644180185C4129
:103D3400C8D20018644180185C41C8D2001864419C
:103D4400013E17D080185C41C8D200186441801825
:103D54005C41C8D20018644180185C41C8D2001884
:103D64006441090201EB15612D02454020F0FF007A
:103D74004540CCE780185C411FD3420918BF44F08A
:103D84000104490101EBD56100F01F0000EB45106F
:103D940021F4801141EA0E01013041F10001244275
:103DA40008BF20F00100B7F5006F3EDA013F49DD9E
:103DB40001EB0751BDE8F0407047490101EBD561C3
:103DC40000F01F0000EB451021F4801141EA0E01C0
:103DD400B7F5006F29DA013F34DD01EB0751BDE887
:103DE400F0407047004218BF41F00101124218BF71
:103DF40043F00103B7EB410F2CBFB7EB430F1CE0BB
:103E0400B7EB410F04BFB7EB430F16E017EA410FBE
:103E140004BF17EA430F10E017EA410F12D017EA64
:103E2400430F02D0B7EB430F0CD04EF0FE4141F4E8
:103E340070010020BDE8F04070474FF0FE4141F4AE
:103E44007801F6E77146F4E70000E0FF4FF4001C48
:103E54001CEB410F98BF1CEB430F0CD850EA410CEC
:103E640008BF52EA430C08D0904208BF99420CBFE5
:103E7400012000207047002070470120704700BFD8
:103E84004FF4001C1CEB410F98BF1CEB430F11D8DF
:103E940051EA030C50EA4C0C5CEA020C0AD004D23E
:103EA40082428B4180410130704790429941804168
:103EB40001307047002070474FF4001C1CEB410F89
:103EC40098BF1CEB430F11D851EA030C50EA4C0C79
:103ED4005CEA020C0AD004D290429941804101303C
:103EE400704782428B418041013070470020704707
:103EF4004FF4001C1CEB410F98BF1CEB430F11D86F
:103F040051EA030C50EA4C0C5CEA020C0AD004D2CD
:103F14009042994180414042704782428B418041A6
:103F240040427047002070474FF4001C1CEB410FC7
:103F340098BF1CEB430F11D851EA030C50EA4C0C08
:103F44005CEA020C0AD004D282428B418041404296
:103F54007047904299418041404270470020704729
:103F640001F00040704700BF0128494111F5001FCE
:103F74000CBF0120002070470128494111F5001FA2
:103F84008CBF0120002070472DE9F04700239246A2
:103F9400002206460F46FFF759FF98B927F0FF4362
:103FA4004FEA175823F4E003C8F30A0843F07F5597
:103FB40045F40015A8F2FE33CAF80030304629460D
:103FC400BDE8F087002330463946CAF80030BDE822
:103FD400F08700BF2DE9F0470023924600220446F3
:103FE4000D46FFF733FFA0B92E0DC6F30A0606EB04
:103FF4000A0240F2FE739A420FDC002A09DD25F022
:10400400FF4323F4E00343EA025920464946BDE84E
:10401400F08700200021BDE8F087FEF7AFFA044BDB
:1040240002461B68002003491360BDE8F08700BF07
:10403400804300000000F07FF8B50022002304460E
:104044000D46FFF703FF80BB2A0DC2F30A02A2F25A
:10405400FF33002B26462F462ADB332B25DC194F52
:104064004FF0FF36C3F1200C26FA03F0A2F21F42F0
:1040740007FA0CFC27FA02F227FA03F140EA0C00D3
:10408400104324EA000225EA010304400D4054EAE7
:104094000506104619460AD0002A73F1000406DA10
:1040A4000022094BFFF7CCFBF8BD20462946F8BD9A
:1040B400002E77F100034FF0000001DB0021F8BD72
:1040C4000249F8BDFFFF0F000000F03F0000F0BF01
:1040D4002DE9F84F16461F4604460D46FFF74CFFE0
:1040E40018B120462946BDE8F88F30463946FFF717
:1040F40043FF002840F093802046294600220023F5
:10410400FFF7A4FE80B13046394600220023FFF7B2
:104114009DFE0028E5D020462946FFF725FF584B91
:10412400D3E90001BDE8F88F20462946FFF71CFFBC
:104134000028F4D13046394600220023FFF786FEDA
:104144000028ECD130463946FFF70EFF0028C8D1CD
:104154003046394600F098F806460F4632463B464C
:1041640020462946FFF768FD002200238046894641
:10417400FFF76CFE002856D14FEA1952C2F30A0227
:10418400A2F2FF33002BC246CB464CDB332B16DCAA
:104194003C494FF0FF30C3F1200EA2F21F4220FA37
:1041A40003F801FA0EFE21FA02F221FA03F948EAB1
:1041B4000E0848EA02082AEA08082BEA09094246D6
:1041C4004B4630463946FFF781FC02460B462046F3
:1041D4002946FFF735FB00228046894620462946BA
:1041E4000023FFF7A1FE18B33046394642464B463A
:1041F400FFF746FE38B14046494632463B46FFF794
:104204001FFB804689464046494600220023FFF7AB
:104214006FFE00282CD140464946BDE8F88F304651
:104224003946BDE8F88F4FF000084FF00009C6E7A3
:10423400324607F1004340464946FFF721FE38B1B4
:104244004046494632463B46FFF7FCFA80468946DB
:104254004046494600220023FFF766FE0028DAD0D4
:104264004046494632463B46FFF7EAFABDE8F88F36
:104274004046494632463B46FFF7E4FABDE8F88F2C
:1042840068440000FFFF0F0021F00041704700BFA9
:104294000000000001B40248844601BC604700BF2E
:1042A400A502002001B40248844601BC604700BF57
:0442B4001D020020C7
:1042B8002F55736572732F64656E69732F73616E02
:1042C80064626F782F64656E6973626F686D2F66BC
:1042D800697265666C792D6963652D6669726D779B
:1042E8006172652F7372632F66645F77323571313F
:1042F8003664775F62697462616E672E63000000DE
:10430800000000008000000025732025643A202565
:104318007300000066645F6C6F67000000000000B7
:104328000000000000002440000000000000594088
:10433800000000000088C3400000000084D79741B7
:104348000080E03779C34143176E05B5B5B8934689
:10435800F5F93FE9034F384D321D30F94877825A55
:104368003CBF737FDD4F1575303132333435363706
:104378003839414243444546220000003031323347
:104388003435363738396162636465662D494E467F
:10439800000000002D696E66000000002B494E46A3
:1043A800000000002B696E66000000004E414E00C0
:1043B8006E616E00286E756C6C29000000000000AC
:1043C80001000000000000000A00000000000000DA
:1043D8006400000000000000E80300000000000086
:1043E8001027000000000000A08601000000000067
:1043F80040420F0000000000809698000000000076
:1044080000E1F5050000000000CA9A3B000000002A
:1044180000E40B540200000000E876481700000092
:104428000010A5D4E800000000A0724E1809000092
:1044380000407A10F35A00000080C6A47E8D030065
:104448000000C16FF286230000008A5D7845630191
:10445800000064A7B3B6E00D0000E8890423C78A0A
:08446800000000000000F87FD5
:10447000154BDB6913F0010F0AD0144B1249013BB5
:10448000CA6912F0010F02D0002BF8D112E09BB1E3
:104490000D4B18610122DA60DB6913F0060F0DD0B5
:1044A00013F0040F0CD103F00203002B14BFFE2005
:1044B000002006E0FD2004E0FD2002E0002000E0F6
:1044C000FF2040B2704700BF00000C40809698006B
:1044D00070B42C4BDB6913F0080F0BD12A4B294C1D
:1044E000013BE26912F0080F02D1002BF8D13EE047
:1044F000002B3ED00268234B9A611022DA6001291A
:104500001DDD01251C46204E13E0013BE26912F03F
:10451000080F03D1002BF8D1FD202FE05BB3E36936
:1045200013F0100F0DD150F8043FA36101358D42F7
:1045300009D0E36913F0080FF1D13346E5E7002015
:1045400002E0FD2000E000200E4BDB6913F0010FBC
:1045500014D00D4B0B49013BCA6912F0010F02D078
:10456000002BF8D109E0002B08BFFD2006E0FD205C
:1045700004E0FD2002E0FD2000E0FD2040B270BC20
:10458000704700BF00000C40809698001F4B9A684F
:1045900042F001029A6018610122DA60DB6913F0CF
:1045A000040F06D0194B9A6822F001029A60FF208E
:1045B0002AE0164BDB6913F0020F06D0134B9A6802
:1045C00022F001029A60FE201EE0104B0222DA6007
:1045D000DB6913F0010F11D00D4B0C49013BCA6987
:1045E00012F0010F02D0002BF8D100E033B9074BD5
:1045F0009A6822F001029A60FD2005E0034B9A6858
:1046000022F001029A60002040B2704700000C4086
:10461000809698002DE9F04180460E46174B996828
:1046200041F0010199609710002F1BDD002408EB79
:1046300084052846FFF71CFFE0B9C5F30A05C5F558
:104640000065AD083B1B9D42A8BF1D46304629466C
:10465000FFF73EFF034630B92C4406EB8506A74220
:10466000E5DC00E00023054A916821F0010191603A
:104670001846FFE740B2BDE8F08100BF00000C40E3
:10468000094B9A6842F001029A6046F21A325A6562
:104690004FF48072DA601A46D36913F0010FFBD130
:0C46A0000020014B5865704700000C40E2
:0846AC0000800000006CDC023C
:106F00001ADA01B0010000000100000000000000DA
:106F100000010203040506070809101112131415D5
:106F20001617181900000000000000000000000003
:106F30000000000000000000000000000000000051
:106F40000000000000000000000000000000000041
:106F50000000000000000000000000000000000031
:106F60000000000000000000000000000000000021
:106F70000000000000000000000000000000000011
:106F80000000000000000000000000000000000001
:106F900000000000000000000000000000000000F1
:106FA00000000000000000000000000000000000E1
:106FB00000000000000000000000000000000000D1
:106FC00000000000000000000000000000000000C1
:106FD00000000000000000000000000000000000B1
:106FE00000000000000000000000000000000000A1
:106FF0000000000000000000000000000000000091
:0400000300000235C2
:00000001FF
